{
  "contractName": "Wrestling",
  "abi": [
    {
      "constant": true,
      "inputs": [],
      "name": "theWinner",
      "outputs": [
        {
          "name": "",
          "type": "address"
        }
      ],
      "payable": false,
      "stateMutability": "view",
      "type": "function"
    },
    {
      "constant": true,
      "inputs": [],
      "name": "wrestler2",
      "outputs": [
        {
          "name": "",
          "type": "address"
        }
      ],
      "payable": false,
      "stateMutability": "view",
      "type": "function"
    },
    {
      "constant": true,
      "inputs": [],
      "name": "wrestler1Played",
      "outputs": [
        {
          "name": "",
          "type": "bool"
        }
      ],
      "payable": false,
      "stateMutability": "view",
      "type": "function"
    },
    {
      "constant": true,
      "inputs": [],
      "name": "wrestler1",
      "outputs": [
        {
          "name": "",
          "type": "address"
        }
      ],
      "payable": false,
      "stateMutability": "view",
      "type": "function"
    },
    {
      "constant": true,
      "inputs": [],
      "name": "gameFinished",
      "outputs": [
        {
          "name": "",
          "type": "bool"
        }
      ],
      "payable": false,
      "stateMutability": "view",
      "type": "function"
    },
    {
      "constant": true,
      "inputs": [],
      "name": "wrestler2Played",
      "outputs": [
        {
          "name": "",
          "type": "bool"
        }
      ],
      "payable": false,
      "stateMutability": "view",
      "type": "function"
    },
    {
      "inputs": [],
      "payable": false,
      "stateMutability": "nonpayable",
      "type": "constructor"
    },
    {
      "anonymous": false,
      "inputs": [
        {
          "indexed": false,
          "name": "wrestler1",
          "type": "address"
        },
        {
          "indexed": false,
          "name": "wrestler2",
          "type": "address"
        }
      ],
      "name": "WrestlingStartsEvent",
      "type": "event"
    },
    {
      "anonymous": false,
      "inputs": [
        {
          "indexed": false,
          "name": "wrestler1Deposit",
          "type": "uint256"
        },
        {
          "indexed": false,
          "name": "wrestler2Deposit",
          "type": "uint256"
        }
      ],
      "name": "EndOfRoundEvent",
      "type": "event"
    },
    {
      "anonymous": false,
      "inputs": [
        {
          "indexed": false,
          "name": "winner",
          "type": "address"
        },
        {
          "indexed": false,
          "name": "gains",
          "type": "uint256"
        }
      ],
      "name": "EndOfWrestlingEvent",
      "type": "event"
    },
    {
      "constant": false,
      "inputs": [],
      "name": "registerAsAnOpponent",
      "outputs": [],
      "payable": false,
      "stateMutability": "nonpayable",
      "type": "function"
    },
    {
      "constant": false,
      "inputs": [],
      "name": "wrestle",
      "outputs": [],
      "payable": true,
      "stateMutability": "payable",
      "type": "function"
    }
  ],
  "bytecode": "0x608060405234801561001057600080fd5b50336000806101000a81548173ffffffffffffffffffffffffffffffffffffffff021916908373ffffffffffffffffffffffffffffffffffffffff160217905550610948806100606000396000f30060806040526004361061008e576000357c0100000000000000000000000000000000000000000000000000000000900463ffffffff16806303cc5597146100935780639d24e4821461009d5780639e07f92a146100f45780639ede38581461014b578063a8b42f1f1461017a578063e2f0a97814610191578063f0f32497146101e8578063f973728e14610217575b600080fd5b61009b610246565b005b3480156100a957600080fd5b506100b26104b3565b604051808273ffffffffffffffffffffffffffffffffffffffff1673ffffffffffffffffffffffffffffffffffffffff16815260200191505060405180910390f35b34801561010057600080fd5b506101096104d9565b604051808273ffffffffffffffffffffffffffffffffffffffff1673ffffffffffffffffffffffffffffffffffffffff16815260200191505060405180910390f35b34801561015757600080fd5b506101606104ff565b604051808215151515815260200191505060405180910390f35b34801561018657600080fd5b5061018f610512565b005b34801561019d57600080fd5b506101a661070a565b604051808273ffffffffffffffffffffffffffffffffffffffff1673ffffffffffffffffffffffffffffffffffffffff16815260200191505060405180910390f35b3480156101f457600080fd5b506101fd61072f565b604051808215151515815260200191505060405180910390f35b34801561022357600080fd5b5061022c610742565b604051808215151515815260200191505060405180910390f35b600460009054906101000a900460ff1615801561030757506000809054906101000a900473ffffffffffffffffffffffffffffffffffffffff1673ffffffffffffffffffffffffffffffffffffffff163373ffffffffffffffffffffffffffffffffffffffff1614806103065750600160009054906101000a900473ffffffffffffffffffffffffffffffffffffffff1673ffffffffffffffffffffffffffffffffffffffff163373ffffffffffffffffffffffffffffffffffffffff16145b5b151561031257600080fd5b6000809054906101000a900473ffffffffffffffffffffffffffffffffffffffff1673ffffffffffffffffffffffffffffffffffffffff163373ffffffffffffffffffffffffffffffffffffffff1614156103b35760001515600160149054906101000a900460ff16151514151561038957600080fd5b60018060146101000a81548160ff02191690831515021790555034600254016002819055506103fb565b60001515600160159054906101000a900460ff1615151415156103d557600080fd5b60018060156101000a81548160ff02191690831515021790555034600354016003819055505b600160149054906101000a900460ff1680156104235750600160159054906101000a900460ff165b156104b157600260035402600254101515610467576104626000809054906101000a900473ffffffffffffffffffffffffffffffffffffffff16610755565b6104b0565b60028054026003541015156104a6576104a1600160009054906101000a900473ffffffffffffffffffffffffffffffffffffffff16610755565b6104af565b6104ae6108a1565b5b5b5b565b600460019054906101000a900473ffffffffffffffffffffffffffffffffffffffff1681565b600160009054906101000a900473ffffffffffffffffffffffffffffffffffffffff1681565b600160149054906101000a900460ff1681565b600073ffffffffffffffffffffffffffffffffffffffff16600160009054906101000a900473ffffffffffffffffffffffffffffffffffffffff1673ffffffffffffffffffffffffffffffffffffffff1614151561056f57600080fd5b6000809054906101000a900473ffffffffffffffffffffffffffffffffffffffff1673ffffffffffffffffffffffffffffffffffffffff16600160009054906101000a900473ffffffffffffffffffffffffffffffffffffffff1673ffffffffffffffffffffffffffffffffffffffff16141515156105ed57600080fd5b33600160006101000a81548173ffffffffffffffffffffffffffffffffffffffff021916908373ffffffffffffffffffffffffffffffffffffffff1602179055507fd4443f0433b17d5fcbda14745060c62f4fd645677efd560e394d49cc6b73b9e56000809054906101000a900473ffffffffffffffffffffffffffffffffffffffff16600160009054906101000a900473ffffffffffffffffffffffffffffffffffffffff16604051808373ffffffffffffffffffffffffffffffffffffffff1673ffffffffffffffffffffffffffffffffffffffff1681526020018273ffffffffffffffffffffffffffffffffffffffff1673ffffffffffffffffffffffffffffffffffffffff1681526020019250505060405180910390a1565b6000809054906101000a900473ffffffffffffffffffffffffffffffffffffffff1681565b600460009054906101000a900460ff1681565b600160159054906101000a900460ff1681565b6001600460006101000a81548160ff02191690831515021790555080600460016101000a81548173ffffffffffffffffffffffffffffffffffffffff021916908373ffffffffffffffffffffffffffffffffffffffff160217905550600354600254016005819055507f132c17ee6430a7c27424b2711c0e3f020ae13d9d62cfb347ae343c2180654bcb81600554604051808373ffffffffffffffffffffffffffffffffffffffff1673ffffffffffffffffffffffffffffffffffffffff1681526020018281526020019250505060405180910390a1600460019054906101000a900473ffffffffffffffffffffffffffffffffffffffff1673ffffffffffffffffffffffffffffffffffffffff166108fc6005549081150290604051600060405180830381858888f19350505050158015610895573d6000803e3d6000fd5b50600060058190555050565b6000600160146101000a81548160ff0219169083151502179055506000600160156101000a81548160ff0219169083151502179055507f4a06b026e39d5ecf4150ef1983227e240bcd23677c8d89479f9521c4e7bed63e600254600354604051808381526020018281526020019250505060405180910390a15600a165627a7a7230582044a9caf7631c8fb487148a596fb1c73a1e272c2ad36a9f250736b3fda53486a30029",
  "source": "pragma solidity ^0.4.24;\r\n\r\ncontract Wrestling {\r\n    address public wrestler1;\r\n    address public wrestler2;\r\n\r\n    bool public wrestler1Played;\r\n    bool public wrestler2Played;\r\n\r\n    uint private wrestler1Deposit;\r\n    uint private wrestler2Deposit;\r\n\r\n    // Rules: If a wrestler enters 2x the other's amount, they win, otherwise play continues\r\n    bool public gameFinished;\r\n    address public theWinner;\r\n    uint gains;\r\n\r\n    event WrestlingStartsEvent(address wrestler1, address wrestler2);\r\n    event EndOfRoundEvent(uint wrestler1Deposit, uint wrestler2Deposit);\r\n    event EndOfWrestlingEvent(address winner, uint gains);\r\n\r\n    constructor() public {\r\n        wrestler1 = msg.sender;\r\n    }\r\n\r\n    function registerAsAnOpponent() public {\r\n        require(wrestler2 == address(0));\r\n        require(wrestler2 != wrestler1);\r\n\r\n        wrestler2 = msg.sender;\r\n        emit WrestlingStartsEvent(wrestler1, wrestler2);\r\n    }\r\n\r\n    function endOfRound() internal {\r\n        wrestler1Played = false;\r\n        wrestler2Played = false;\r\n        emit EndOfRoundEvent(wrestler1Deposit, wrestler2Deposit);\r\n    }\r\n\r\n    function endOfGame(address winner) internal {\r\n        gameFinished = true;\r\n        theWinner = winner;\r\n        gains = wrestler1Deposit + wrestler2Deposit;\r\n        emit EndOfWrestlingEvent(winner, gains);\r\n        theWinner.transfer(gains);\r\n        gains = 0;\r\n    }\r\n\r\n    \r\n    function wrestle() public payable {\r\n        require(!gameFinished && (msg.sender == wrestler1 || msg.sender == wrestler2));\r\n\r\n        if (msg.sender == wrestler1){\r\n            require(wrestler1Played == false);\r\n            wrestler1Played = true;\r\n            wrestler1Deposit = wrestler1Deposit + msg.value;\r\n        } else {\r\n            require(wrestler2Played == false);\r\n            wrestler2Played = true;\r\n            wrestler2Deposit = wrestler2Deposit+msg.value;\r\n        }\r\n\r\n        if (wrestler1Played && wrestler2Played){\r\n            if (wrestler1Deposit >= wrestler2Deposit * 2) {\r\n                endOfGame(wrestler1);\r\n            } else if (wrestler2Deposit >= wrestler1Deposit * 2) {\r\n                endOfGame(wrestler2);\r\n            } else {\r\n                endOfRound();\r\n            }\r\n        }\r\n    }\r\n}",
  "sourcePath": "C:\\Users\\Vince\\Documents\\Visual Studio 2017\\Projects\\truffle\\contracts\\Wrestling.sol",
  "compiler": {
    "name": "solc",
    "version": "0.4.24+commit.e67f0147.Emscripten.clang"
  },
  "schemaVersion": "2.0.0",
  "updatedAt": "2018-07-06T12:49:05.001Z"
}